:1000000000140020E13100002932000029320000F4
:100010002932000029320000293200002932000074
:100020002932000029320000293200002932000064
:10003000293200002932000037CB000029320000AD
:100040002932000029320000293200002932000044
:100050002932000029320000293200002932000034
:1000600029320000293200005D28000029320000FA
:100070002932000029320000293200002932000014
:100080002932000029320000052900002932000031
:1000900029320000293200002932000029320000F4
:1000A00029320000293200002932000029320000E4
:1000B000293200002932000091F1000029320000AD
:1000C00029320000293200002932000029320000C4
:1000D00029320000293200002932000029320000B4
:1000E00029320000293200002932000029320000A4
:1000F0002932000029320000293200002932000094
:1001000029320000293200002932000010B5054CC8
:10011000237833B9044B13B10448AFF300800123B3
:10012000237010BDA820002000000000C85301006B
:1001300008B5034B1BB103490348AFF3008008BD6A
:1001400000000000AC200020C8530100A3F5803A55
:10015000704700BF174B002B08BF134B9D46FFF79E
:10016000F5FF00218B460F461348144A121A11F06E
:100170003BFD0E4B002B00D098470D4B002B00D0C1
:1001800098470020002104000D000D48002802D0EF
:100190000C48AFF3008011F0E5FC2000290002F0CC
:1001A0002BFC11F0CBFC00BF000008000000000099
:1001B0000000000000140020841500205C96002040
:1001C000000000000000000000B58DB001903F4B22
:1001D00004221A703E4B00221A603E4B1A683E4BB6
:1001E0001B689A4203DD3B4B1B683B4A1360019935
:1001F0003A4811F02DFE00230B9325E00B9A13468D
:100200005B0013441B01364A134403AA11461846E7
:100210000CF0FEF80346022B13D10B9A13465B0039
:1002200013441B012E4A981803AB002200210CF046
:100230006FF99DF80C30002B03D03121294803F0D1
:100240003FFC0B9B01330B930B9B022BD6DD02F083
:10025000B9FB03AB0022002123480CF059F99DF8AB
:100260000C30002B03D036211E4803F029FC03ABD1
:10027000002200211D480CF04BF99DF80C30002B9A
:1002800003D03821174803F01BFC07AB00220421E0
:10029000174808F027FD9DF81C30002B03D03A21A9
:1002A000104803F00DFC07AB01220221104808F0B2
:1002B00019FD9DF81C30002B03D03C21094803F0A8
:1002C000FFFB00BF0DB05DF804FB00BF0014002071
:1002D0001C2100204021002044210020202100205A
:1002E0006431002028340100143700208C3C0020A9
:1002F000C420002008B5074B1B68013B054A13606A
:10030000044B1B68002B02D10348FFF75DFF00BFC1
:1003100008BD00BF041400204834010000B589B0B6
:1003200030494FF000024FF00003C1E904232D498A
:100330004FF000024FF00003C1E9022329494FF0BA
:100340000002294BC1E90023284B05221A70284BD3
:1003500003221A60274B00221A6000F037F9264B5F
:1003600002221A7004AB194624480BF059FF9DF87D
:100370001030002B03D05421214803F0A1FB04AB23
:10038000194620480BF04CFF6B46002202211E4804
:1003900008F0A8FC9DF81030002B03D19DF8003028
:1003A000002B03D05721164803F08AFB04AB1946F3
:1003B00016480BF035FF6B4601220521124808F064
:1003C00091FC9DF80030002B03D19DF81030002BDC
:1003D00003D05A210A4803F073FB00BF09B05DF84F
:1003E00004FB00BFD0410020000050403414002026
:1003F000041400204021002000140020643100205B
:100400002834010014370020C42000208C3C002038
:1004100000B597B012AB089301230793002306930E
:10042000782305930A2304934FF4807303931923CD
:100430000293154B0193142300930023134A14498C
:1004400014480AF07DFD0EAB01221349134808F051
:1004500025F90AAB04221249124809F0A9FC9DF8BB
:100460003830002B07D19DF84830002B03D19DF880
:100470002830002B03D07C210B4803F021FB00BF68
:1004800017B05DF804FB00BF34220020AD0400006B
:1004900050340100482100205C340100C4200020B9
:1004A00070340100EC2000202834010000B58DB02C
:1004B0000123ADF80A306CE00DF10A0203AB0193A1
:1004C00000230093134600220021394809F00CFD57
:1004D0000B909DF80C30002B03D08821354803F099
:1004E000EFFA0B9B1B78012B0CD1334B1B680133AC
:1004F0005A4203F0030302F0030258BF53422E4A4C
:10050000136043E02C4B1B68032B3AD801A252F82E
:1005100023F000BF25050000470500005D05000031
:100520007D050000254B1B7801335A4203F003037D
:1005300002F0030258BF5342012BB8BF0123DAB2C5
:100540001E4B1A7022E01E4B1B68002B0CBF0123B0
:100550000023DBB21A461A4B1A6017E0194B1B78BE
:10056000002B14BF01230023DBB283F00103DBB2B5
:1005700003F00103DAB2134B1A7007E0FFF7CEFE67
:1005800004E09A210B4803F09BFA00BF0B9811F08E
:1005900015FB07AB019300230093082300220521DC
:1005A000094808F0EBF80346022B85D1F1E700BFBC
:1005B000EC200020283401001C2100200814002019
:1005C000583C002035140020C420002000B587B01E
:1005D00001AB1A460F49104808F00EFF9DF8043091
:1005E000002B03D017210D4803F06AFA002305936E
:1005F00005E0059800F016F8059B01330593084BBC
:100600001B781A46059B9342F3DB00BF00BF07B07F
:100610005DF804FB80340100342600208C34010096
:1006200008140020F0B58DB0019011F0A3FB024634
:10063000394B83FB021313449911D317C91A0B4684
:10064000DB005B1A1B01D11A0B460833184610F069
:10065000B7FD06460F4611F08DFB01462F4B83FB7D
:1006600001231A11CB17D21A13469B001344DB0047
:10067000CA1AA2F11403184610F0B2FD04460D4642
:1006800011F078FB0146254B83FB01239A10CB1711
:10069000D21A13469B0013445B00CA1A104610F08E
:1006A0009FFD1F4B0093019A13469B001344DB00F0
:1006B000009A1344C3E90067194E019A13469B0040
:1006C0001344DB00334403F108064FF00002154BDE
:1006D000C6E90023124E019A13469B001344DB0027
:1006E00033441033C3E900450D4C019A13469B0077
:1006F0001344DB0023441833C3E900010849019A7D
:1007000013469B001344DB000B44203300221A7075
:1007100000BF0DB0F0BD00BF9324499267666666C6
:10072000682600200000084000B585B06B461A46D8
:10073000002107480AF08CF89DF80030002B03D008
:100740003721044803F0BCF900BF05B05DF804FB95
:10075000102700209834010000B599B013AB002297
:100760003D493E4809F06CFE0FAB03930023029312
:100770003B4B0193022300930123002239493A485D
:100780000BF08AFC0BAB089301230793002306931D
:10079000782305930A2304934FF48073039319235A
:1007A0000293324B0193152300930023304A3149C1
:1007B00031480AF0C5FB9DF84C30002B07D19DF85D
:1007C0003C30002B03D19DF82C30002B03D05F214F
:1007D0002A4803F075F902F0BDF91790179B002B1A
:1007E00003D06621254803F06BF900200CF012FBC2
:1007F0001790179B002B03D06A21204803F060F963
:100800001F480CF0A7FD1790179B002B03D06E21FB
:100810001A4803F055F91A4B6FF07F425A60184B93
:1008200000229A6016480CF021FE164914480DF07B
:10083000B4FD0123029305230193052300930023B4
:10084000002211490E480DF0C9FD0CF0D9FC00BF83
:1008500019B05DF804FB00BFA83401001027002088
:1008600029070000B8340100E026002024280020D9
:10087000410E0000C43401003827002098340100E4
:10088000242C0020B04B0100D034010000B583B00F
:1008900001900091019905480DF09EFB00990348D5
:1008A0000DF09AFB00BF03B05DF804FB242C002080
:1008B00000B587B00190019B0F3B02936F23039318
:1008C000019B0F3304937323059302AB194603482E
:1008D0000DF082FB00BF07B05DF804FB242C002064
:1008E00000B583B0019000910323009A0199034859
:1008F0000CF030FF00BF03B05DF804FB242C002097
:1009000010B59AB0AD49AE48FFF7C0FF0BAB0093EE
:10091000002300220021AB4808F0DAFD9DF82C30BE
:10092000002B03D0B321A84803F0CAF8A74BD3E9A2
:1009300000231046194612F0DBFB02460B46104618
:10094000194610F051FF034614930BAB1A460021D1
:100950009C4808F09FFF9DF82C30002B03D0B62157
:10096000994803F0ADF81498FFF7A2FF00231993FC
:10097000002318930BAB009300230022002194481E
:1009800008F0A6FD9DF82C30002B03D0BD218E4829
:1009900003F096F80023179360E08E49179A1346E8
:1009A0009B001344DB000B44D3E900231046194697
:1009B00012F09EFB02460B461046194610F014FF3B
:1009C00004468449179A13469B001344DB000B44EA
:1009D0000833D3E900231046194612F089FB02467A
:1009E0000B461046194610F0FFFE034619462046F6
:1009F000FFF776FF7749179A13469B001344DB00F5
:100A00000B440833D3E900231046194610F0ECFEDE
:100A10000246199B93421EDA6E49179A13469B00B1
:100A20001344DB000B440833D3E900231046194676
:100A300010F0DAFE034619936649179A13469B0095
:100A40001344DB000B44D3E900231046194610F091
:100A5000CBFE03461893179B013317935E4B1B780D
:100A60001A46179B934298DB0BAB1A460021584855
:100A700008F010FF9DF82C30002B03D0C8215248FD
:100A800003F01EF8554B1B78002B05D01023712264
:100A9000149953480CF0E1FD189BC3F17B031393A9
:100AA000199BC3F171031293139B03FB03F2129B77
:100AB00003FB03F31344184610F092FB02460B4667
:100AC0001046194612F062FB02460B4610461946C4
:100AD00010F08AFE03461193139A13461B011A4421
:100AE000119B92FBF3F3C3F17B031093129A13460D
:100AF0001B011A44119B92FBF3F3C3F171030F9393
:100B00006FF0040316930FE0169B713319460F9A8A
:100B1000169B13440093109B0A467B2130480DF02E
:100B200051F9169B01331693169B052BECDD2D4BCB
:100B30001B68002B0FDD2C4B1A682C4B1B68009395
:100B4000134671227B2126480DF03CF9254B1B688A
:100B5000013B244A1360264A08AB07CA03C31A8024
:100B60000233120C1A70234B1B783033DBB28DF832
:100B70002930214B1B6808A9012202920022019210
:100B8000009302230C2216480DF028FC1B4B1A6818
:100B900005AB1B49184611F03BF905A90123029347
:100BA000032301936FF009030093022300220C48F2
:100BB0000DF014FC012315932FE000BF1C1400203E
:100BC0000C1400205C3C002098340100D04100202F
:100BD00034260020682600200814002094470020B6
:100BE000242C0020083700200C370020103700206C
:100BF000F4340100341400202C1400204021002083
:100C0000F0340100094B1A68159BDB0019461046A9
:100C1000FFF766FE159B01331593054B1B68159A6C
:100C20009A42EFDD00BF00BF1AB010BD30140020A3
:100C30000414002000B5A1B06B4B1B78042B01D12C
:100C40006A4A00E06A4A1CAB1146184611F0E0F807
:100C5000684B1B68002B01D1674A00E0674A684B6C
:100C60001B7817A8674911F0D3F8674B1B68002B56
:100C70000CD0604B1B68012B01D15F4A00E05F4A3A
:100C800013AB6249184611F0C3F80BE0594B1B68CF
:100C9000012B01D1584A00E0584A13AB5C49184671
:100CA00011F0B6F85B4B1B78002B0CD0514B1B6836
:100CB000022B01D1504A00E0504A0CAB564918466D
:100CC00011F0A6F80BE04B4B1B68022B01D14A4AEE
:100CD00000E04A4A0CAB5149184611F099F8454BCF
:100CE0001B68032B05D111AB4D49184611F090F844
:100CF00004E011AB4B49184611F08AF83A4B1B78C7
:100D0000042B25D1484B1A6809AB4849184611F005
:100D10007FF8474B1A6804AB4649184611F078F83B
:100D200009A90123029300230193002300930023C8
:100D3000002241480DF052FB04A901230293002335
:100D4000019300230093002301223B480DF046FB52
:100D50001CA9012302930023019300230093012384
:100D6000032235480DF03AFB01230293002301933F
:100D7000002300930123042230492F480DF02EFB5D
:100D800017A9012302930023019300230093012359
:100D9000072229480DF022FB13A901230293002307
:100DA0000193002300930123082223480DF016FB32
:100DB0000CA9012302930023019300230093012334
:100DC00009221D480DF00AFB11A9012302930023FB
:100DD00001930023009301230A2217480DF0FEFA25
:100DE00000BF21B05DF804FB0014002000350100B5
:100DF0000C3501001C2100201C35010020350100AC
:100E00000814002024350100583C0020343501002E
:100E100040350100351400205035010064350100D3
:100E2000783501008035010040210020883501001F
:100E30004421002094350100242C00202021002092
:100E400000B58BB0184919480DF0A7FA02AB194646
:100E500017480BF0E5F99DF80830002B04D040F25C
:100E60007111144802F02CFE06AB009300230022FF
:100E70000021114809F054FB9DF81830002B04D0D4
:100E800040F275110B4802F01BFE08480CF0EEFA18
:100E90000A4B1B78022B02D1FFF732FD01E0FFF76E
:100EA000C9FE0CF0ADF9DFE7E04E0100242C002074
:100EB000E0260020983401001027002000140020B4
:100EC00000B585B00B4B1B78022B0FD16B461A4631
:100ED0000021094809F0BCFC9DF80030002B03D02C
:100EE0001C21064802F0ECFD01F073FD00BF05B0C7
:100EF0005DF804FB001400203C310020A435010003
:100F000000B59FB01AAB00223149324809F098FA77
:100F100016AB0393002302932F4B019302230093FC
:100F20000A2300222D492E480BF0B6F812AB03938A
:100F300000230293284B01930223009305230022F0
:100F4000284929480BF0A8F80EAB0393002302931D
:100F5000214B0193022300930123002223492448BB
:100F60000BF09AF80AAB089301230793002306932A
:100F7000782305930A2304934FF480730393192372
:100F800002931C4B01931523009300231A4A1B491B
:100F90001B4809F0D5FF9DF86830002B0FD19DF854
:100FA0005830002B0BD19DF84830002B07D19DF80D
:100FB0003830002B03D19DF82830002B03D0552169
:100FC000104802F07DFD00BF1FB05DF804FB00BFBC
:100FD000B43501003C310020C10E0000C4350100D1
:100FE00064310020D035010094310020DC3501004F
:100FF000C43100203C2D002009100000E83501001C
:10100000502C0020A435010030B58DB006AB009304
:10101000002300220021494809F082FA9DF8183087
:10102000002B03D05F21464802F04AFD454BD3E92F
:1010300002231046194612F013F804460D46424B9F
:101040001B68184610F0CCF802460B46204629468D
:1010500010F05AFA02460B461046194602460B4655
:101060000FF072FF02460B461046194612F040F888
:1010700002460B464FF000004FF0804111F0F4FFA4
:1010800002460B461046194610F0AEFB03460A9383
:1010900000230B934DE00A9A0B9B9A4223D10B9AA3
:1010A00013465B0013441B01284A134402AA11464D
:1010B00018460BF0ADF90346022B0BD00B9A1346E2
:1010C0005B0013441B01214A134402AA114618462F
:1010D0000BF0A6F89DF80830002B27D0682118489F
:1010E00002F0EEFC22E00B9A13465B0013441B0156
:1010F000164A134402AA114618460BF089F9034612
:10110000012B0BD00B9A13465B0013441B010F4AB3
:10111000981802AB002200210BF0FAF99DF8083074
:10112000002B03D06C21064802F0CAFC0B9B013354
:101130000B930B9B022BAEDD68E700BF3C31002018
:10114000A4350100D04100203C140020643100206F
:1011500000B593B00EAB00221649174809F070F99C
:101160000AAB089301230793002306937823059382
:101170000A2304934FF480730393192302930F4BB4
:1011800001931523009300230D4A0E490E4809F0E0
:10119000D7FE9DF83830002B03D19DF82830002B66
:1011A00003D03321094802F08BFC00BF13B05DF877
:1011B00004FB00BFF4350100E0360020E0320020DF
:1011C000AD12000004360100F43100201036010099
:1011D00000B589B003902D4B1B78002B51D02B4BC1
:1011E0001B78013BDAB2294B1A70294B1B6801337B
:1011F000274A1360274B03221A602749039A134694
:101200009B001344DB000B44D3E90023104619462E
:1012100010F0EAFA0346214A13601F49039A134665
:101220009B001344DB000B440833D3E90023104632
:10123000194610F0D9FA0346194A136004AB00931B
:10124000002300220021174808F042F99DF81030D1
:10125000002B03D04221144802F032FC0398FFF720
:10126000E1F904AB1A4600210E4808F013FB9DF883
:101270001030002B03D047210B4802F021FC012342
:1012800000E00023184609B05DF804FB3414002088
:101290004021002008370020682600200C3700205D
:1012A00010370020342600201036010030B58BB0F6
:1012B00003AB0093002300220021234809F030F9FA
:1012C0009DF80C30002B03D05521204802F0F8FB8C
:1012D0000023099300230893002307932AE01C4965
:1012E000079A13469B001344DB000B440833D3E9F1
:1012F000004508980FF074FF02460B462046294629
:1013000010F068FA0346002B11D01149079A1346D2
:101310009B001344DB000B440833D3E90023104641
:10132000194610F061FA03460893079B0993079B3F
:1013300001330793074B1B781A46079B9342CEDB7A
:101340000998FFF745FFB3E7E036002010360100AB
:10135000682600200814002000B585B06B461A46A8
:101360000021074809F074FA9DF80030002B03D0E3
:101370002321044802F0A4FB00BF05B05DF804FB84
:10138000303C00202436010000B597B012AB00229B
:101390001F49204809F054F80EAB03930023029331
:1013A0001D4B019302230093012300221B491C487B
:1013B0000AF072FE0AAB08930123079300230693F9
:1013C000782305930A2304934FF48073039319231E
:1013D0000293144B0193142300930023124A1349E0
:1013E000134809F0ADFD9DF84830002B07D19DF85A
:1013F0003830002B03D19DF82830002B03D0452135
:101400000C4802F05DFB00BF17B05DF804FB00BFA5
:1014100040360100303C0020591300005C360100CA
:101420001437002030380020D91A0000743601002B
:1014300044370020243601002DE9F04184B00190AA
:1014400000230393F7E0039A13469B001344DB0049
:101450001A46019B1344D3E90067039A13469B0085
:101460001344DB001A46019B1344D3E9040178A31B
:10147000D3E900230FF01EFF02460B461046194623
:10148000039A13469B001344DB001A46019B03EBAF
:10149000020802460B46304639460FF055FD02461B
:1014A0000B46C8E90023039A13469B001344DB0054
:1014B0001A46019B1344D3E90267039A13469B0023
:1014C0001344DB001A46019B1344D3E9060160A3D1
:1014D000D3E900230FF0EEFE02460B4610461946F4
:1014E000039A13469B001344DB001A46019B03EB4F
:1014F000020802460B46304639460FF025FD0246EB
:101500000B46C8E90223039A13469B001344DB00F1
:101510001A46019B1344D3E90667514B1B681846D2
:101520000FF05EFE4AA3D3E900230FF0C3FE02468C
:101530000B4610461946039A13469B001344DB00E2
:101540001A46019B03EB020802460B463046394619
:101550000FF0FAFC02460B46C8E90623039A13462D
:101560009B001344DB001A46019B1344D3E900019E
:101570004FF000023B4B0FF0E5FC02460B461046D5
:1015800019464FF00002384B10F006F90346002BC5
:1015900018D0039A13469B001344DB001A46019BA4
:1015A0001344D3E90401039A13469B001344DB0060
:1015B0001A46019B9E1811F053FD02460B46C6E9E0
:1015C000042335E0039A13469B001344DB001A46BC
:1015D000019B1344D3E900014FF00002214B0FF0AF
:1015E000B3FC02460B46104619461BA3D3E9002361
:1015F00010F0F0F80346002B1AD0039A13469B0014
:101600001344DB001A46019B1344D3E9042310461C
:10161000194611F025FD039A13469B001344DB0085
:101620001A46019B1344044681F00045C3E9044572
:10163000039B013303930D4B1B781A46039B934284
:10164000FFF601AF00BF00BF04B0BDE8F08100BFEE
:101650009A9999999999B93F0000000000C05E409D
:101660003814002000000840000014400814002036
:10167000F0B583B00190019BD3E90067019BD3E9EA
:10168000020178A3D3E900230FF014FE02460B46B3
:10169000304639460FF058FC02460B460199C1E925
:1016A0000023019BD3E90267019BD3E904016DA3E9
:1016B000D3E900230FF0FEFD02460B4630463946C3
:1016C0000FF042FC02460B460199C1E90223019B3F
:1016D000D3E900014FF000025B4B0FF033FC0246F0
:1016E0000B46104619464FF00002584B10F054F8C4
:1016F0000346002B42D0019BD3E90245544B1B68A3
:101700005B4218460FF06CFD02460B462046294608
:1017100010F042F80346002B03D04E48FEF754FD6C
:101720008BE04D4B1B68002B13D001994FF000024A
:101730004FF00003C1E90423019BD3E902231046C3
:10174000194611F08DFC02460B460199C1E90223AE
:1017500073E001994FF000024FF00003C1E9042348
:1017600001994FF000024FF00003C1E902230199F3
:101770004FF00002394BC1E900235EE0019BD3E941
:1017800000014FF00002304B0FF0DEFB02460B462B
:10179000104619462AA3D3E9002310F01BF803468C
:1017A000002B00D149E0019BD3E90267284B1B685D
:1017B00018460FF015FD02460B463046394610F02C
:1017C00009F80346002B03D02248FEF7FDFC34E065
:1017D000214B1B68002B1CD001994FF000024FF0E9
:1017E0000003C1E90423019BD3E9022310461946F3
:1017F00011F036FC02460B46144683F00045019B6F
:10180000C3E9024501994FF00002154BC1E90023DD
:1018100013E001994FF000024FF00003C1E90423E7
:1018200001994FF000024FF00003C1E90223019932
:101830004FF000020A4BC1E9002300BF03B0F0BD26
:101840000000000000C05E4000002E400000144078
:101850003C14002088360100583C00200000344031
:1018600000005B409A9999999999B93F70B58CB0ED
:1018700005900491039200230B930CE10B9A1346FD
:101880009B001344DB001A46059B1344D3E9020175
:101890004FF00002854B0FF057FB02460B461046F7
:1018A00019464FF00002824B0FF08AFF0346002BCF
:1018B00000F0B3800B9A13469B001344DB001A46DA
:1018C000059B1344D3E906014FF000024FF00003DB
:1018D0000FF080FF0346002B00F09F800B9A134609
:1018E0009B001344DB001A46059B1344D3E9060111
:1018F0004FF000026F4B0FF06DFF0346002B5BD0E3
:101900000B9A13469B001344DB001A46059B1344B5
:10191000D3E90045049BD3E900014FF00002664B78
:101920000FF012FB02460B46204629460FF034FF0B
:101930000346002B40D00B9A13469B001344DB0058
:101940001A46059B1344D3E90045049BD3E90001E3
:101950004FF00002584B0FF0F5FA02460B462046B6
:1019600029460FF037FF0346002B25D00B9A13466C
:101970009B001344DB001A46059B1344D3E906453C
:10198000039B1B78002B03D04FF000004B4902E073
:101990004FF000004A490B9A13469B001344DB00AA
:1019A0001A46059B9E1822462B460FF083FC0246E2
:1019B0000B46C6E906236AE0424B1B78002B08D091
:1019C0000B98FFF705FC034683F00103DBB2002B05
:1019D0005DD0FEF78FFC07AB0093002300220021AF
:1019E000394807F075FD9DF81C30002B03D08E217F
:1019F000364802F065F80B98FEF714FE07AB1A465E
:101A00000021314807F046FF9DF81C30002B3ED0E6
:101A100093212E4802F054F839E00B9A13469B00AC
:101A20001344DB001A46059B1344D3E902014FF02F
:101A300000024FF000030FF0AFFE0346002B27D04B
:101A400007AB00930023002200211F4807F040FD50
:101A50009DF81C30002B03D099211C4802F030F86F
:101A60000B98FEF7DFFD07AB1A460021164807F07A
:101A700011FF9DF81C30002B03D09E21134802F06B
:101A80001FF8134B1B680133114A136000E000BFBD
:101A90000B9B01330B930F4B1B781A460B9B934206
:101AA000FFF6ECAE00BF00BF0CB070BD00000840F8
:101AB00000405C400000394000002E400000F4BFB0
:101AC0000000E8BF35140020342600202436010031
:101AD000402100200814002000B58BB006AB009315
:101AE000002300220021294808F01AFD9DF8183033
:101AF000002B03D0AD21264801F0E2FF02AB00939A
:101B0000002300220021234807F0E2FC9DF8083062
:101B1000002B03D0B0211E4801F0D2FF1E48FFF772
:101B20008BFC02AB1A4600211A4807F0B3FE9DF861
:101B30000830002B03D0B521154801F0C1FF02ABDE
:101B40000093002300220021144807F0C1FC9DF8F7
:101B50000830002B03D0B8210D4801F0B1FF104828
:101B6000FFF786FD02AB1A4600210C4807F092FEF3
:101B70009DF80830002B03D0BD21054801F0A0FFDF
:101B8000084A07490448FFF771FEA7E7303C0020E8
:101B90002436010034260020682600205C3C00200A
:101BA000D04100209447002000B585B06B461A460E
:101BB0000021074808F04CFE9DF80030002B03D0B0
:101BC0001D21044801F07CFF00BF05B05DF804FB57
:101BD000BC3C00209436010000B59BB016AB00223F
:101BE0002F49304808F02CFC0AAB1A462E492F48E2
:101BF00007F002FC12AB0393002302932C4B0193DA
:101C000002230093012300222A492B480AF044FAB8
:101C10000EAB0893012307930023069378230593C3
:101C20000A2304934FF48073039319230293234BE5
:101C30000193132300930023214A2249224809F0EB
:101C40007FF99DF85830002B0BD19DF82830002BE0
:101C500007D19DF84830002B03D19DF83830002B78
:101C600003D04621194801F02BFF194B00221A60BE
:101C700018494FF000024FF00003C1E90423154951
:101C80004FF000024FF00003C1E9022311494FF069
:101C90000002114BC1E9002300BF1BB05DF804FB3B
:101CA000AC360100BC3C0020C03601005C3C00208A
:101CB000A91B0000D03601008C3C0020D03D002044
:101CC000DD1C0000E0360100E43C002094360100F9
:101CD000583C0020D04100200000504000B58DB09D
:101CE00006AB00930023002200213F4808F018FCB7
:101CF0009DF81830002B03D057213C4801F0E0FE3E
:101D000000F0D2FA4FF0FF330B9300230A9315E053
:101D10000A9BDBB2184600F055FA0346002B0AD0A6
:101D20000B9BB3F1FF3F02D10A9B0B9303E04FF0F3
:101D3000FF330B9305E00A9B01330A930A9B032BA5
:101D4000E6DD02AB0093002300220021284807F0C3
:101D5000BFFB9DF80830002B03D06821234801F019
:101D6000AFFE0B9B032B27D801A252F823F000BF34
:101D7000811D00008F1D00009D1D0000AB1D000097
:101D80001C494FF000021C4BC1E904231CE0194917
:101D90004FF00002194BC1E9042315E015494FF03B
:101DA0000002174BC1E904230EE012494FF0000274
:101DB000144BC1E9042307E00E494FF000024FF035
:101DC0000003C1E9042300BF02AB1A460021084802
:101DD00007F060FD9DF80830002B81D07D2103487D
:101DE00001F06EFE7CE700BFBC3C00209436010091
:101DF0005C3C0020D0410020000038C0000028C01A
:101E0000000028400000384000B59FB01AAB08938E
:101E10000123079300230693782305930A23049351
:101E20004FF480730393192302932A4B01931523D4
:101E300000930023284A2949294809F081F816AB64
:101E400004222849284807F0B3FF12AB039300236C
:101E50000293264B0193012300930023052224497A
:101E600024480AF019F90EAB039300230293224B86
:101E700001930123009300230F22204920480AF0F8
:101E80000BF90AAB1A461F491F4807F0B5FA9DF82F
:101E90006830002B0FD19DF85830002B0BD19DF8E6
:101EA0004830002B07D19DF83830002B03D19DF826
:101EB0002830002B03D04F21144801F001FE144BB1
:101EC00000221A70124B00225A7000BF1FB05DF83A
:101ED00004FB00BF64430020151F0000F036010022
:101EE00078420020FC360100E84100201520000067
:101EF00014370100484200209D20000028370100CF
:101F0000184200204037010064470020503701008C
:101F10009447002000B591B00123ADF80A300DF1CF
:101F20000A020BAB01930023009313460022002109
:101F3000324807F0D9FF0F909DF82C30002B03D0CA
:101F400062212F4801F0BCFD03AB00930023002267
:101F500000212C4807F0BCFA9DF80C30002B03D070
:101F60006521274801F0ACFD0F9B1B78012B17D191
:101F7000254B5B7883F00103DBB2002B10D0224BA2
:101F800001221A7007AB194620480AF049F99DF85A
:101F90001C30002B1FD06B21194801F091FD1AE075
:101FA0000F9B1B78002B16D1174B1B78002B12D0E0
:101FB000154B00221A70144B01225A7007AB1946B8
:101FC00013480AF02DF99DF81C30002B03D0712125
:101FD0000B4801F075FD03AB1A460021094807F0D4
:101FE00059FC9DF80C30002B03D07521044801F0FA
:101FF00067FD0F980FF0E2FD91E700BFE841002078
:1020000050370100644700209447002048420020D8
:102010001842002000B58BB002AB009300230022D1
:1020200000211A4807F054FA9DF80830002B03D01D
:102030008221174801F044FD164B1B78002B12D06B
:10204000144B00221A70134B01225A7006AB19462A
:1020500011480AF0E5F89DF81830002B03D08921CB
:102060000B4801F02DFD02AB1A460021074807F08E
:1020700011FC9DF80830002B03D08D21044801F09D
:102080001FFD00BF0BB05DF804FB00BF64470020DC
:1020900050370100944700201842002000B587B057
:1020A00002AB0093002300220021124807F010FA2F
:1020B0009DF80830002B03D095210F4801F000FD5A
:1020C0000E4B5B78002B02D00C4B00225A7002ABF7
:1020D0001A460021074807F0DDFB9DF80830002B69
:1020E00003D09A21044801F0EBFC00BF07B05DF873
:1020F00004FB00BF644700205037010094470020D4
:10210000044B1B69034A23F00403136130BF00BF73
:10211000704700BF00ED00E000B58FB00AAB089338
:102120000123079300230693002305930A230493B6
:102130004FF480730393192302930B4B01931623DF
:1021400000930023094A0A490A4808F0F9FE9DF85D
:102150002830002B03D04721074801F0B1FC00BF15
:102160000FB05DF804FB00BF844800207D21000013
:1021700064370100984700207037010000B585B032
:10218000FFF7BEFF6B461A460021322009F0B2FD70
:10219000F6E708B500F016FB00F0AEF8FEF7D8FF42
:1021A000FFF7F2F8FFF718FDFFF72EFEFEF7A8FE87
:1021B000FEF7D2FAFFF7B0FFFEF72AF90EF06AFE3B
:1021C00000BF08BD84B003468DF807309DF8073086
:1021D0000D4A52F8233003939DF807300A4A52F80B
:1021E00023309B08039AD31A03939DF80730074ABC
:1021F00052F82330039A9A4201D9012300E00023C8
:10220000184604B0704700BF984C0020884C00204E
:1022100000B589B003468DF807309DF807301946A0
:102220004FF0804001F0EEFB1A4B00225A621A4B2D
:1022300000221A70174B01225A6003AB1A46002184
:102240000A2009F057FD134B02225A60114B5B6ABA
:102250000793124B1B78DBB21946114A079B42F8D1
:1022600021300E4B1B78DBB21A460E4B53F822304E
:10227000079A9A4207D9094B1B78DBB21946094ADB
:10228000079B42F82130044B01221A7000BF09B0AD
:102290005DF804FB00840140854C0020844C002044
:1022A000884C0020984C002008B54FF0804001F089
:1022B000E9FB0F4B00221A700FE00D4B1B78DBB2CD
:1022C0001A460C4B9B5C1846FFF7A2FF084B1B7885
:1022D000DBB20133DAB2064B1A70054B1B78DBB266
:1022E000032BEAD94FF0804001F0AEFB00BF08BDE0
:1022F000844C00207C37010030B587B0174B6C460A
:102300001D460FCD0FC495E8030084E803000121AA
:10231000134801F097FE0121124801F093FE0121BC
:10232000114801F08FFE01214FF48A4001F08AFE2E
:102330000E4B0F4A1A600D4B4FF6FF72DA610B4BD2
:102340000C4A1A670C4B0D4A1A656B4619464FF03A
:10235000804001F0FBFA00BF07B030BD80370100BC
:10236000404105000012040000A204000084014066
:102370000000010A0100002A00600E400003100066
:1023800082B003468DF807309DF90730002B0CDB37
:102390009DF8073003F01F0205499DF907305B09DE
:1023A000012000FA02F241F8232000BF02B070477A
:1023B00000E100E084B001900091019B03F14243F1
:1023C00003F58013DA00009B13449B000393039BE7
:1023D0001B68184604B0704784B001900091019BBF
:1023E00003F1C0630393039B009A1A6000BF04B01B
:1023F000704784B001900091019B03F180630393C7
:10240000039B009A1A6000BF04B0704782B001902D
:10241000034A019BC2F8243400BF02B0704700BFDA
:1024200000A00040024BD3F81C341846704700BF90
:1024300000A0004000B583B0034600918DF807303E
:102440009DF80730002B42D09DF80730012B3BD080
:102450009DF80730022B34D09DF80730032B2DD088
:102460009DF80730042B27D09DF80730052B20D08E
:102470009DF80730062B1AD09DF80730072B14D093
:102480009DF80730082B0ED09DF80730092B07D098
:102490009DF807300A2B01D107231AE0002318E02A
:1024A0004FF4404315E00F2313E0002311E0002315
:1024B0000FE04FF6FF730CE000230AE04FF47F4378
:1024C00007E040F6FF7304E04FF6C07301E040F20E
:1024D000FF33009AD34003F00103002B04D140F2F4
:1024E000B5310B4801F0ECFA9DF8072013465B006C
:1024F00013441B011C3303F1804303F5204300996F
:102500001846FFF757FF0346184603B05DF804FB73
:102510009837010000B583B0034600918DF807306D
:102520009DF80730002B42D09DF80730012B3BD09F
:102530009DF80730022B34D09DF80730032B2DD0A7
:102540009DF80730042B27D09DF80730052B20D0AD
:102550009DF80730062B1AD09DF80730072B14D0B2
:102560009DF80730082B0ED09DF80730092B07D0B7
:102570009DF807300A2B01D107231AE0002318E049
:102580004FF4404315E00F2313E0002311E0002334
:102590000FE04FF6FF730CE000230AE04FF47F4397
:1025A00007E040F6FF7304E04FF6C07301E040F22D
:1025B000FF33009AD34003F00103002B04D14FF402
:1025C00079710D4801F07CFA9DF8072013465B00F5
:1025D00013441B010C3303F1804303F52043012115
:1025E000009A01FA02F211461846FFF702FF00BFF7
:1025F00003B05DF804FB00BF9837010000B583B05D
:10260000034600918DF807309DF80730002B42D02B
:102610009DF80730012B3BD09DF80730022B34D0BA
:102620009DF80730032B2DD09DF80730042B27D0C1
:102630009DF80730052B20D09DF80730062B1AD0C7
:102640009DF80730072B14D09DF80730082B0ED0CB
:102650009DF80730092B07D09DF807300A2B01D1D0
:1026600007231AE0002318E04FF4404315E00F233E
:1026700013E0002311E000230FE04FF6FF730CE09E
:1026800000230AE04FF47F4307E040F6FF7304E0C5
:102690004FF6C07301E040F2FF33009AD34003F0DD
:1026A0000103002B04D140F2FE310B4801F008FA7F
:1026B0009DF8072013465B0013441B010C3303F104
:1026C000804303F5204300991846FFF773FE034645
:1026D000184603B05DF804FB9837010000B583B0DD
:1026E000034600918DF807309DF80730002B42D04B
:1026F0009DF80730012B3BD09DF80730022B34D0DA
:102700009DF80730032B2DD09DF80730042B27D0E0
:102710009DF80730052B20D09DF80730062B1AD0E6
:102720009DF80730072B14D09DF80730082B0ED0EA
:102730009DF80730092B07D09DF807300A2B01D1EF
:1027400007231AE0002318E04FF4404315E00F235D
:1027500013E0002311E000230FE04FF6FF730CE0BD
:1027600000230AE04FF47F4307E040F6FF7304E0E4
:102770004FF6C07301E040F2FF33009AD34003F0FC
:102780000103002B04D140F213410D4801F098F9E8
:102790009DF8072013465B0013441B010C3303F123
:1027A000804303F520430121009A01FA02F2114609
:1027B0001846FFF711FE00BF03B05DF804FB00BF31
:1027C0009837010000B583B04FF00111052003F0E8
:1027D00091FD002304220421052003F0C1FE4FF0E7
:1027E0000111052003F086FD0023042205210520A8
:1027F00003F0B6FE4FF00111052003F07BFD00232E
:1028000001220621052003F0ABFE4FF00111052047
:1028100003F070FD002301220721052003F0A0FE34
:1028200001230193012300930123062206210520A1
:1028300003F0B2FD0123019301230093012307223A
:102840000721052003F0A8FD0A20FFF799FD1220BB
:10285000FFF796FD00BF03B05DF804FB00B58DB037
:1028600002F08AFC0B90FFF7DDFD03461846FFF7E8
:10287000CDFD01200FF09AF903460A930A9B00222E
:102880001A701C4B1B78022B16D106210520FFF76E
:10289000D1FD0346002B26D102AB1A464FF400416E
:1028A000154807F0D5FF9DF80830002B1BD0632199
:1028B000124801F005F916E006210520FFF7BAFDE0
:1028C0000346002B0FD106AB0093002301220A9987
:1028D0000B4807F0A5FC9DF81830002B03D06821A9
:1028E000064801F0EDF80B9802F056FC00BF0DB061
:1028F0005DF804FB00140020E036002010380100D1
:10290000EC20002000B58BB002F036FC0990FFF7F8
:1029100089FD03461846FFF779FD01200FF046F9BF
:1029200003460893089B01221A70224B1B78022B46
:1029300022D101200FF03AF9034607930721052021
:10294000FFF778FD0346002B0CBF01230023DBB209
:102950001A46079B1A7003AB0093002301220799C4
:10296000154807F05DFC9DF80C30002B1BD07C2136
:10297000124801F0A5F816E007210520FFF75AFDDF
:102980000346002B0FD103AB0093002301220899CB
:102990000B4807F045FC9DF80C30002B03D080213C
:1029A000064801F08DF8099802F0F6FB00BF0BB065
:1029B0005DF804FB00140020E841002010380100FD
:1029C000EC20002008B505210520FFF7A3FD00BF7E
:1029D00008BD08B505210520FFF710FE0346002BB2
:1029E00004D005210520FFF795FD03E00521052012
:1029F000FFF774FE00BF08BD08B50CF016FCFFF72A
:102A0000C8FB0CF01FFC0023184608BD00BF704730
:102A100008B50421112001F0B3FE0121084801F09E
:102A200011FB0221074801F0ABFE0221064801F02C
:102A3000A7FE0221054801F0A3FE0023184608BDA9
:102A400030253E0002001E00030020000500240087
:102A5000024BDB6C1B0EDBB218467047B081E00FF7
:102A600000B583B01A4B01225A64FFF7F1FF034609
:102A70008DF807309DF80730002B0CD1154B4AF626
:102A8000E8521A60144B1B68134A43F004031360A6
:102A9000104B00221A609DF80730012B05D80F4B10
:102AA0001B680E4A43F4005313600D4B1B6A23F45A
:102AB00044130B4A43F4881313620A4B1B68094AF8
:102AC00043F4F843136000BF03B05DF804FB00BF9C
:102AD00000000E4090310E4098310E4064310E409F
:102AE00000400E40A4310E4008B5FFF7B9FF0BF0CF
:102AF00087FD00F045F80BF0CFFC0BF001FD0BF06B
:102B00003BFDFFF785FF0BF0D9FC00F02DF80DF031
:102B100071FE04F003F904F025F900BF08BD08B503
:102B200004F050F900BF08BD08B500F00BF800BF75
:102B300008BD08B50BF080FD00BF08BD00BF7047A1
:102B400000BF704708B5024800F02EFC00BF08BD6A
:102B50001C38010008B5012304220F21032003F0D3
:102B6000FFFC0023184608BD08B50121034801F009
:102B700069FAFFF74BFF00BF08BD00BF00350A0030
:102B800008B50121024801F05DFA00BF08BD00BF91
:102B900000350A0030B58DB0039002911346ADF8B0
:102BA0000630224B05AC1D460FCD0FC495E803003F
:102BB00084E80300039B1B680B9301211C4801F070
:102BC00041FA039B5B680121184601F03BFA039B25
:102BD000187B039B5B7B19460023042203F0C0FC97
:102BE000039B187A039B5B7A19460023042203F0A7
:102BF000B7FC029B0793BDF80630ADF8243005AB57
:102C000019460B9803F080FE039B9B7B1A02039BE3
:102C10001B7C1B0613431A460B9B9A670B9B0A22CD
:102C20005A67002318460DB030BD00BF343801008C
:102C300000350A0000B589B0039002910192029B11
:102C40000693039B1B680593002307930AE0069AEB
:102C5000079B13441B781946059803F047FF079B11
:102C600001330793079A019B9A42F0D30023184639
:102C700009B05DF804FB84B00190019B1B680393CD
:102C800000BF039B1B6903F02003002BF9D000BF9A
:102C900000BF04B0704784B001900091019B03F124
:102CA000C0630393039B009A1A6000BF04B070478F
:102CB00084B001900091019B03F180630393039B17
:102CC000009A1A6000BF04B07047000000B583B0DE
:102CD000034600918DF807309DF80730002B42D055
:102CE0009DF80730012B3BD09DF80730022B34D0E4
:102CF0009DF80730032B2DD09DF80730042B27D0EB
:102D00009DF80730052B20D09DF80730062B1AD0F0
:102D10009DF80730072B14D09DF80730082B0ED0F4
:102D20009DF80730092B07D09DF807300A2B01D1F9
:102D300007231AE0002318E04FF4404315E00F2367
:102D400013E0002311E000230FE04FF6FF730CE0C7
:102D500000230AE04FF47F4307E040F6FF7304E0EE
:102D60004FF6C07301E040F2FF33009AD34003F006
:102D70000103002B04D14FF479710D4800F0A0FE3F
:102D80009DF8072013465B0013441B010C3303F12D
:102D9000804303F520430121009A01FA02F2114613
:102DA0001846FFF785FF00BF03B05DF804FB00BFC6
:102DB0004C38010000B583B0034600918DF8073010
:102DC0009DF80730002B42D09DF80730012B3BD0F7
:102DD0009DF80730022B34D09DF80730032B2DD0FF
:102DE0009DF80730042B27D09DF80730052B20D005
:102DF0009DF80730062B1AD09DF80730072B14D00A
:102E00009DF80730082B0ED09DF80730092B07D00E
:102E10009DF807300A2B01D107231AE0002318E0A0
:102E20004FF4404315E00F2313E0002311E000238B
:102E30000FE04FF6FF730CE000230AE04FF47F43EE
:102E400007E040F6FF7304E04FF6C07301E040F284
:102E5000FF33009AD34003F00103002B04D140F26A
:102E600013410D4800F02CFE9DF8072013465B002F
:102E700013441B010C3303F1804303F5204301216C
:102E8000009A01FA02F211461846FFF704FF00BF4C
:102E900003B05DF804FB00BF4C38010000B583B0FF
:102EA000034600918DF807309DF80730002B42D083
:102EB0009DF80730012B3BD09DF80730022B34D012
:102EC0009DF80730032B2DD09DF80730042B27D019
:102ED0009DF80730052B20D09DF80730062B1AD01F
:102EE0009DF80730072B14D09DF80730082B0ED023
:102EF0009DF80730092B07D09DF807300A2B01D128
:102F000007231AE0002318E04FF4404315E00F2395
:102F100013E0002311E000230FE04FF6FF730CE0F5
:102F200000230AE04FF47F4307E040F6FF7304E01C
:102F30004FF6C07301E040F2FF33009AD34003F034
:102F40000103002B04D140F22E410A4800F0B8FDE5
:102F500009489DF807200121009B994013465B001A
:102F600013441B0103441833196000BF03B05DF81C
:102F700004FB00BF4C38010000A0004010B582B037
:102F800001900121144801F05DF8019B9B6800222B
:102F900019461248FFF7FEFD002304220E210320EC
:102FA00003F0DEFA002304220D21032003F0D8FAF7
:102FB0000B4A019B14460FCB84E80F00094B0122FA
:102FC0001A700121019800F00FF8019800F03AF80A
:102FD0000023184602B010BD00350A00441400203A
:102FE000C04C0020D04C002000B587B003900B46A9
:102FF0008DF80B30002305939DF80B30002B14D077
:103000000BF096FC0490039B1B7B5B001A46049B11
:10301000B3FBF2F101230193002300930023074A3D
:1030200007480BF086FB059003E005480BF0A2FB78
:103030000590059B184607B05DF804FBA53100001C
:10304000A84C002000B585B001900E210320FFF7A9
:10305000B1FE019B5B7B18460CF0FAF80423ADF837
:103060000E300DF10E03022219460A48FFF7E2FD69
:103070000848FFF700FE019B9B7B18460CF0E8F820
:103080000E210320FFF722FE0023184605B05DF84D
:1030900004FB00BF4414002000B589B003900291E6
:1030A00001920093029B0693039B1B881A46039B85
:1030B0001B7902FB03F3002B00DA0733DB100593C7
:1030C000019B013301930E210320FFF773FE039B45
:1030D0005B7B18460CF0BCF8019B9BB21B029BB2B9
:1030E00043F001039BB2ADF812300DF1120302223E
:1030F00019462448FFF79EFD002307932CE0059B0B
:103100001A4606991F48FFF795FD059B069A13443A
:103110000693009B013B079A9A4204D14FF6FF7336
:10312000ADF812300EE0019B9AB2079B9BB213449C
:103130009BB201339BB21B029BB243F0FF039BB2D5
:10314000ADF812300DF11203022219460D48FFF7B7
:1031500071FD079B01330793079A009B9A42CED3D8
:103160000848FFF788FD039B9B7B18460CF070F81E
:103170000E210320FFF7AAFD0023184609B05DF8D1
:1031800004FB00BF44140020044B1B78002B01D02B
:10319000034B00E000231846704700BFD04C0020CE
:1031A000C04C002000B583B0019000910D21032098
:1031B000FFF774FE00BF03B05DF804FB10B584B0E8
:1031C000064B6C460FCB84E80F006B461846FFF7A2
:1031D000D5FE0346184604B010BD00BFC438010038
:1031E00000B585B000F0A2F80C4B03930C4B029392
:1031F0000B4B01930B4B00930AE0039A131D0393AF
:10320000029B191D029112681A60019B04330193FD
:10321000019A009B9A42F0D3FCF79CFFD053010027
:103220000014002084150020FEE7000000B583B0E4
:1032300000F020F801900A4BD3F808311B0AC3F3C1
:1032400008030093009B0133019AB2FBF3F301934F
:10325000044A019B1360019B184603B05DF804FB10
:1032600000400E4060140020014B1846704700BF1C
:10327000005A620282B01A4BD3F8943003F007036D
:10328000023B032B1BD801A252F823F0AD32000001
:10329000A53200009D320000B5320000114B1B68C2
:1032A000019310E04FF4004301930CE00E4B1B68B8
:1032B000019308E00D4B1B685B08019303E00B4B87
:1032C0001B68019300BF064BD3F800311B0A03F0C3
:1032D0001F030133019AB2FBF3F3184602B07047A3
:1032E00000400E405C14002058140020641400209C
:1032F000014B1B68184670475814002000B583B076
:103300000190084A019B1360074BD3F8943003F0F7
:103310000703022B01D1FFF789FF00BF03B05DF85F
:1033200004FB00BF5814002000400E40064B074A23
:103330009A60054BD3F88830034A43F47003C2F80F
:10334000883000BF704700BF00ED00E000000000C3
:103350004FF40043184670474FF47A73184670478D
:10336000014B1B68184670475C14002084B0019024
:103370000B4B1A68019B13440A4A934202D94FF03F
:10338000FF3309E0064B1B680393054B1A68019B4A
:103390001344034A1360039B184604B0704700BFF0
:1033A000681400200000042000B583B00190019B48
:1033B0005B68019A1268104698470346184603B0A6
:1033C0005DF804FB84B001900091019B03F142433E
:1033D00003F58013DA00009B13449B000393039BC7
:1033E0001B68184604B0704784B001900091019B9F
:1033F00003F1C0630393039B009A1A6000BF04B0FB
:10340000704784B001900091019B03F180630393A6
:10341000039B009A1A6000BF04B0704700B583B0E8
:10342000034600918DF807309DF80730002B42D0FD
:103430009DF80730012B3BD09DF80730022B34D08C
:103440009DF80730032B2DD09DF80730042B27D093
:103450009DF80730052B20D09DF80730062B1AD099
:103460009DF80730072B14D09DF80730082B0ED09D
:103470009DF80730092B07D09DF807300A2B01D1A2
:1034800007231AE0002318E04FF4404315E00F2310
:1034900013E0002311E000230FE04FF6FF730CE070
:1034A00000230AE04FF47F4307E040F6FF7304E097
:1034B0004FF6C07301E040F2FF33009AD34003F0AF
:1034C0000103002B04D14FF479710D4800F0F8FA94
:1034D0009DF8072013465B0013441B010C3303F1D6
:1034E000804303F520430121009A01FA02F21146BC
:1034F0001846FFF786FF00BF03B05DF804FB00BF6E
:10350000D438010000B583B0034600918DF8073030
:103510009DF80730002B42D09DF80730012B3BD09F
:103520009DF80730022B34D09DF80730032B2DD0A7
:103530009DF80730042B27D09DF80730052B20D0AD
:103540009DF80730062B1AD09DF80730072B14D0B2
:103550009DF80730082B0ED09DF80730092B07D0B7
:103560009DF807300A2B01D107231AE0002318E049
:103570004FF4404315E00F2313E0002311E0002334
:103580000FE04FF6FF730CE000230AE04FF47F4397
:1035900007E040F6FF7304E04FF6C07301E040F22D
:1035A000FF33009AD34003F00103002B04D140F213
:1035B000FE310B4800F084FA9DF8072013465B00AB
:1035C00013441B010C3303F1804303F5204300999E
:1035D0001846FFF7F7FE0346184603B05DF804FBF4
:1035E000D438010000B583B0034600918DF8073050
:1035F0009DF80730002B42D09DF80730012B3BD0BF
:103600009DF80730022B34D09DF80730032B2DD0C6
:103610009DF80730042B27D09DF80730052B20D0CC
:103620009DF80730062B1AD09DF80730072B14D0D1
:103630009DF80730082B0ED09DF80730092B07D0D6
:103640009DF807300A2B01D107231AE0002318E068
:103650004FF4404315E00F2313E0002311E0002353
:103660000FE04FF6FF730CE000230AE04FF47F43B6
:1036700007E040F6FF7304E04FF6C07301E040F24C
:10368000FF33009AD34003F00103002B04D140F232
:1036900013410D4800F014FA9DF8072013465B0013
:1036A00013441B010C3303F1804303F52043012134
:1036B000009A01FA02F211461846FFF795FE00BF84
:1036C00003B05DF804FB00BFD438010000B583B03F
:1036D000034600918DF807309DF80730002B42D04B
:1036E0009DF80730012B3BD09DF80730022B34D0DA
:1036F0009DF80730032B2DD09DF80730042B27D0E1
:103700009DF80730052B20D09DF80730062B1AD0E6
:103710009DF80730072B14D09DF80730082B0ED0EA
:103720009DF80730092B07D09DF807300A2B01D1EF
:1037300007231AE0002318E04FF4404315E00F235D
:1037400013E0002311E000230FE04FF6FF730CE0BD
:1037500000230AE04FF47F4307E040F6FF7304E0E4
:103760004FF6C07301E040F2FF33009AD34003F0FC
:103770000103002B04D140F22E410A4800F0A0F9C9
:1037800009489DF807200121009B994013465B00E2
:1037900013441B0103441833196000BF03B05DF8E4
:1037A00004FB00BFD438010000A0004000B585B084
:1037B0000190019B039301210D4800F043FC01217E
:1037C0000C4800F03FFC039B1878039B5B7819467C
:1037D000039B9B78002B0CBF01230023DBB2042248
:1037E00002F0BEFE0023184605B05DF804FB00BFE2
:1037F0004041050000350A0000B585B00190019BED
:103800000393039B9B78002B08D1039B1A78039B9F
:103810005B7819461046FFF701FE07E0039B1A7814
:10382000039B5B7819461046FFF7DCFE00BF05B02E
:103830005DF804FB00B585B00190019B0393039BE9
:103840009B78002B08D1039B1A78039B5B78194661
:103850001046FFF7C7FE07E0039B1A78039B5B78CF
:1038600019461046FFF7DAFD00BF05B05DF804FB0E
:1038700000B585B00190019B0393039B1A78039BCD
:103880005B7819461046FFF721FF00BF05B05DF8D1
:1038900004FB00B585B00190019B0393039B1A784C
:1038A000039B5B7819461046FFF72CFE03468DF804
:1038B0000B30039B9B78002B07D19DF80B30002B1E
:1038C0000CBF01230023DBB201E09DF80B3018464A
:1038D00005B05DF804FB000000B587B003900291CD
:1038E0000192029B1F2B03D991210A4800F0E8F8AE
:1038F000039B03F1424303F58013DA00029B134458
:103900009B000593059B019A1A6000BF07B05DF804
:1039100004FB00BF4C39010000B587B00390029151
:10392000019201F013FC0590039B1A68029BDB4394
:103930001A400199029B0B401A43039B1A60059899
:1039400001F010FC00BF07B05DF804FB00B583B0C8
:1039500001900091019BB3F1804F07D0019B274A52
:10396000934203D0A221264800F0AAF8009B1B69CD
:103970003F2B03D9B621224800F0A2F8009BDB6858
:103980003F2B03D9B7211E4800F09AF8009B5B68D3
:103990003F2B03D9B8211A4800F092F8009B1B78FE
:1039A000DB071A46009B5B681B06134343F4004287
:1039B000019B1A60009BDB681B04009A127A1A4371
:1039C000019B9A62009B1B691B04009A527A1A435E
:1039D000019BDA62009B9B7A1B0743F0806343F4F0
:1039E0007D43019A53600198009B1B7D1A4600217C
:1039F000FFF772FF00BF03B05DF804FB0004004056
:103A0000C439010000B583B001900B468DF8033036
:103A1000019BB3F1804F07D0019B094A934203D029
:103A2000F521084800F04CF8019B04339DF8032071
:103A3000FF211846FFF770FF00BF03B05DF804FBDD
:103A400000040040C439010000B583B00190019B1F
:103A5000B3F1804F08D0019B084A934204D040F252
:103A60001B11074800F02CF8019B1B6823F0010292
:103A7000019B1A6000BF03B05DF804FB0004004026
:103A8000C439010000B583B00190019BB3F1804FB0
:103A900008D0019B084A934204D04FF49C71074818
:103AA00000F00EF8019B1B6843F00102019B1A60B5
:103AB00000BF03B05DF804FB00040040C4390100FE
:103AC00082B001900091FEE700B583B00190019BA8
:103AD0001F2B04D940F22F110548FFF7F1FF0122F7
:103AE000019B02FA03F3184603B05DF804FB00BF24
:103AF0003C3A010000B587B0039002910192029B0D
:103B00001F2B03D991210A48FFF7DAFF039B03F12A
:103B1000424303F58013DA00029B13449B00059394
:103B2000059B019A1A6000BF07B05DF804FB00BF57
:103B3000B83A010084B001900091019B03F1424327
:103B400003F58013DA00009B13449B000393039B4F
:103B50001B68184604B07047054B1B6803F0400310
:103B6000002B01D1012300E000231846704700BF5D
:103B70003C300E4008B5FFF7EFFF034683F001032A
:103B8000DBB2002B08D100BF12210448FFF7D2FF9F
:103B90000346002BF8D100E000BF08BD04300E4002
:103BA00008B5FFF7E7FF044B5B681B0C03F003034A
:103BB000DBB2184608BD00BF00300E4000B585B02E
:103BC000019001230393019B124A934204D80023DE
:103BD00003930023029308E0019B0F4A934202D80B
:103BE0000123029301E002230293039A10210B4860
:103BF000FFF780FF094BD3F8003123F08072029B5E
:103C00001B0606491343C1F8003100BF05B05DF83B
:103C100004FB00BF0048E8010090D00300400E40C4
:103C200082B0034B1B680193019B184602B070479A
:103C30006C14002000B583B0FFF71CFB0190074B0C
:103C4000D3F800311B0A03F01F030133019A02FB72
:103C500003F3184603B05DF804FB00BF00400E40BC
:103C600000B583B0104800F081FC03468DF80330A6
:103C70009DF80330072B05D0092B07D1FFF7FAFA7F
:103C800001900BE0FFF7CCFF019007E000230193C8
:103C90004FF493510548FFF713FF00BF019B1846EF
:103CA00003B05DF804FB00BF06000E00A83B010056
:103CB00000B585B00190019B002B1FD1214800F079
:103CC00055FC03468DF80B3000BF9DF80B30013BCF
:103CD000072B29D801A252F823F000BF0B3D0000AA
:103CE000293D0000293D0000193D0000293D00004C
:103CF000293D0000113D0000213D00004FF494518A
:103D00001148FFF7DDFE002317E00023039313E0C3
:103D1000FFF786FF03900FE0FFF7EAFA03900BE04E
:103D2000FFF788FF039007E00023039341F29721F8
:103D30000548FFF7C5FE00BF039B184605B05DF8B8
:103D400004FB00BFB8003200A83B010000B585B0FD
:103D5000019000911F4B5B6803F0407303930023B5
:103D6000029312E01C4A029BDB0013441A79009B69
:103D7000DBB29A4206D1184A029B52F83330019ABC
:103D80009A4206D9029B01330293029B042BE9D984
:103D900000E000BF029B052B07D10323039341F2F0
:103DA0009E310E48FFF78CFE05E00B4A029BDB00BC
:103DB00013445B790393039B1B060393054B5B68DA
:103DC00023F040720349039B13434B6000BF05B0CF
:103DD0005DF804FB00000E40203C0100A83B010000
:103DE00000B583B00E4B1B6C002B14BF01230023C6
:103DF0008DF807300A4B41F671321A64FFF734FA36
:103E0000034600211846FFF7A1FF9DF80730002B5D
:103E100002D0034B00221A6400BF03B05DF804FB1C
:103E200000000E4000B585B0019000910D4B1B6C59
:103E3000002B14BF012300238DF80F30094B41F6EE
:103E400071321A6400990198FFF780FF9DF80F30D6
:103E5000002B02D0034B00221A6400BF05B05DF8AE
:103E600004FB00BF00000E4086B001900F230593B5
:103E7000019B03330493059B0393039A049B934292
:103E800028BF13460293029B1B070293029B18460E
:103E900006B07047034B5B6A1B0903F00303184627
:103EA000704700BF00400E4082B00190054B5B6A36
:103EB00023F03002019B1B01024913434B6200BFF8
:103EC00002B0704700400E4010B584B0019000234E
:103ED0000293019B424A934211D0019B404A934274
:103EE00007D8019B3F4A934209D0019B3E4A934227
:103EF00005D041F29E413D48FFF7E2FD00E000BFE2
:103F0000019800F033FB03460393019B344A93422C
:103F10001AD0019B324A93421DD8019B314A9342E9
:103F200004D0019B304A934207D014E0304BD3F8C1
:103F3000803003F00703039313E02D4BD3F8843054
:103F400003F0070303930CE0294BD3F8883003F008
:103F50000703039305E041F2CD412448FFF7B0FD8C
:103F600000BF039B042B2ED801A252F823F000BF00
:103F7000C13F0000853F00008D3F00009D3F0000D5
:103F8000953F0000FFF7E4F9029024E0FFF7E8F91D
:103F9000029020E0FFF7E0F902901CE0FFF76AF9D9
:103FA0000446134BD3F800311B0E03F00103013319
:103FB0001846FFF789FD0346B4FBF3F302930AE0CA
:103FC0000023029307E00023029341F21F510748A8
:103FD000FFF776FD00BF029B184604B010BD00BF7E
:103FE0000500240002001E0003002000A83B010081
:103FF00000400E4082B00190094BD3F8443103F0E9
:104000000103002B08D100BF054BD3F84021019BD1
:104010001340002BF8D100E000BF02B0704700BF92
:1040200000400E4000BF704700BF704700B583B02E
:104030000190019800F0BAF903460133184603B025
:104040005DF804FB00B587B001900B468DF8033096
:1040500000230493019B1B0A03F00F03013B092B70
:1040600032D801A252F823F0914000009D40000098
:10407000C9400000C940000097400000A340000074
:10408000AD400000C9400000B7400000C340000040
:104090001B4B05931EE01B4B05931BE01A4B05932E
:1040A00018E01A4B05930123049313E0184B059372
:1040B000102304930EE0174B05934FF480330493C1
:1040C00008E0154B059305E041F63B111348FFF757
:1040D000F7FC11E0019B1B0B03F01F030393049BF0
:1040E000002B02D00498FFF785FF9DF803301A4695
:1040F00003990598FFF7FEFC07B05DF804FB00BFCD
:1041000000400E40B0400E40C0400E40E0400E4027
:10411000E8400E40F0400E4050410E40A83B0100E8
:1041200010B584B00190019B03F47813B3F5781FA8
:1041300000F01B81B3F5781F00F22281B3F5481F10
:1041400000F00E81B3F5481F00F21A81B3F5401F4D
:1041500000F0E580B3F5401F00F21281B3F5381F7F
:1041600000F0B680B3F5381F00F20A81B3F5101FD6
:1041700000F0E980B3F5101F00F20281B3F5001FD3
:1041800000F0B580B3F5001F00F2FA80B3F5F01F20
:1041900079D0B3F5F01F00F2F380B3F5D01F00F033
:1041A000AB80B3F5D01F00F2EB80B3F5B01F7DD02C
:1041B000B3F5B01F00F2E480B3F5A01F68D0B3F5EB
:1041C000A01F00F2DD80B3F5801F00F0C580B3F5BD
:1041D000801F00F2D580B3F5602F00F0B980B3F5F1
:1041E000602F00F2CD80B3F5402F3DD0B3F5402FC6
:1041F00000F2C680B3F5202F23D0B3F5202F00F2B4
:10420000BF80B3F5802F0DD0B3F5802F00F2B880BA
:10421000002B03D0B3F5003F17D0B1E0FFF72AF829
:104220000390B5E0FFF726F803905B4BD3F80C3111
:104230001B0AC3F308030133039AB2FBF3F303939E
:10424000A6E0FFF717F80390A2E0FFF713F803903A
:10425000514BD3F808311B0AC3F308030133039A07
:10426000B2FBF3F3039393E0FFF704F803904A4B98
:10427000D3F814311B0A03F01F030133039AB2FB76
:10428000F3F3039384E04548FFF71EFE03907FE0BD
:104290004348FFF719FE03903F4BD3F8303103F04A
:1042A0000303039A22FA03F3039371E03B48FFF7F9
:1042B0000BFE0390384BD3F8203103F00F03184660
:1042C000FFF702FC0246039BB3FBF2F303935FE0AC
:1042D0003248FFF7F9FD03902F4BD3F820311B092B
:1042E00003F00303039A22FA03F3039350E02D48EB
:1042F000FFF7EAFD03904BE02A48FFF7E5FD039046
:10430000254BD3F828311B0903F003031846FFF7A8
:10431000DBFB0246039BB3FBF2F3039338E0214837
:10432000FFF7D2FD03901C4BD3F828311B0A03F092
:10433000030304331846FFF7C7FB0246039BB3FB96
:10434000F2F3039324E01648FFF7BEFD03901FE04D
:10435000FFF786FC03901BE0FFF762FC039017E079
:104360000020FFF7A5FC039012E0FEF783FF044650
:104370000198FFF75BFE0346B4FBF3F3039307E0FA
:104380000023039341F66B210748FFF799FB00BF19
:10439000039B184604B010BD00400E4002001E00F2
:1043A0000500240003002000A83B010000B585B0F3
:1043B0000190019B1B0903F00F030293029B013B39
:1043C000092B00F2B88001A252F823F0F543000057
:1043D0000544000015440000354400003745000046
:1043E000374500004544000055440000AF4400003C
:1043F0000F450000564BD3F800311B0A03F01F0392
:104400000393A0E0524BD3F814311B0A03F01F03AF
:10441000039398E04E4BD3F800311B0E03F00103D9
:104420000393039B01331846FFF74EFB0346013B02
:10443000039388E0464BD3F80C311B0AC3F30803FF
:10444000039380E0424BD3F808311B0AC3F30803FF
:10445000039378E0019B3F4A934204D0019B3E4A7C
:1044600093420DD01AE03A4BD3F8203103F00F03FA
:1044700003930398FFF728FB0346013B039315E0E2
:10448000334BD3F820311B0903F003030393039844
:10449000FFF71AFB0346013B039307E00023039356
:1044A00041F6DF212D48FFF70BFB00BF4BE0019BDE
:1044B0002B4A934204D0019B2A4A93420ED01DE01E
:1044C000234BD3F828311B0903F00303039303980C
:1044D000FFF7FAFA0346013B039317E01C4BD3F8AE
:1044E00028311B0A03F003030393039B043318468C
:1044F000FFF7EAFA0346013B039307E00023039327
:1045000041F603311548FFF7DBFA00BF1BE0019BC2
:10451000154A934206D10E4BD3F8303103F0030312
:10452000039307E00023039341F612310B48FFF792
:10453000C7FA00BF07E00023039341F6373107486D
:10454000FFF7BEFA00BF039B184605B05DF804FBF9
:1045500000400E408006160080162E00A83B010089
:1045600090171A0090273000A009140000B585B0FC
:10457000019001238DF80F30019B03F00F0302938C
:10458000029B013B072B00F2E78001A252F823F0C7
:10459000B145000013460000514600005947000095
:1045A000A3460000E1460000594700000B47000009
:1045B000714BD3F8943003F00703023B052B23D84B
:1045C00001A252F823F000BFF1450000E9450000C8
:1045D000E1450000F94500000946000001460000E1
:1045E00002238DF80F3013E003238DF80F300FE016
:1045F00004238DF80F300BE00B238DF80F3007E00C
:104600000C238DF80F3003E005238DF80F3000BF29
:10461000ABE0594BD3F8803003F00703042B0ED0E6
:10462000042B10D8012B02D0022B04D00BE0032363
:104630008DF80F300BE002238DF80F3007E00A23CE
:104640008DF80F3003E001238DF80F3000BF8CE0B0
:10465000494BD3F8843003F00703013B032B1BD8ED
:1046600001A252F823F000BF794600008146000005
:10467000914600008946000003238DF80F300FE0BB
:1046800002238DF80F300BE00A238DF80F3007E07E
:1046900006238DF80F3003E001238DF80F3000BFA3
:1046A00063E0354BD3F8883003F00703042B0ED0BA
:1046B000042B10D8012B02D0022B04D00BE00323D3
:1046C0008DF80F300BE002238DF80F3007E00A233E
:1046D0008DF80F3003E001238DF80F3000BF44E068
:1046E000254B1B6F03F00103002B05D0012B07D1D5
:1046F00009238DF80F3007E007238DF80F3003E012
:1047000001238DF80F3000BF2FE01B4BD3F85C3135
:1047100003F03003302B16D0302B18D8202B0ED0BE
:10472000202B14D8002B02D0102B04D00FE0012333
:104730008DF80F300FE007238DF80F300BE00423C6
:104740008DF80F3007E008238DF80F3003E00123C8
:104750008DF80F3000BF08E000238DF80F3041F6D0
:104760008B610648FFF7ACF900BF9DF80F30184683
:1047700005B05DF804FB00BF00400E40A83B0100FF
:1047800000B58BB001900B468DF8033003230993DD
:1047900003238DF823300023069300230593019B08
:1047A000112B1BD19DF80330042B03D1FEF7A0FD84
:1047B00005900CE09DF80330052B08D100F08CF932
:1047C0000346BD4A934202D900F086F90590059B45
:1047D000002B03D00021059800F0A2FD019B03F0FF
:1047E0000F030493049B013B072B00F25B8101A2A2
:1047F00052F823F0154800001F49000055490000F9
:10480000A54A000035490000F9490000A54A00000A
:10481000254A00009DF80330023B0A2B48D801A22C
:1048200052F823F0514800005D480000694800003C
:104830007B480000B1480000B1480000B1480000CA
:10484000B1480000A54800008D48000099480000CC
:104850000423099300238DF823302FE003230993C9
:1048600001238DF8233029E00223099302238DF8D8
:1048700023309248FFF7A2F920E001230993032394
:104880008DF823308D48FFF799F917E00523099338
:1048900003238DF8233011E00723099306238DF8B5
:1048A00023300BE041F64C718548FFF709F9FFE032
:1048B00041F651718248FFF703F9F9E09DF8233082
:1048C000062B06D09DF8233001220121184600F066
:1048D000D1F9FFF785FAFFF7A5FB059B002B01D067
:1048E000FFF748F9774A099B5367FEF79FFC03904F
:1048F000FEF7C0FC03461846FFF760F9FFF750F9D2
:10490000034619460398FFF78DFA059B002B03D148
:104910000121002000F004FDFFF786FBC8E06A4B90
:1049200006939DF80330062B04D141F6907164483C
:10493000FFF7C6F8069B002B01D0069B00E0634BF7
:1049400006939DF80330062B04D14FF4FD515C48CB
:10495000FFF7B6F8069B002B01D0069B00E05C4BEE
:1049600006939DF80330013B092B3BD801A252F876
:1049700023F000BF9D490000A3490000B349000097
:10498000E5490000E5490000C3490000E549000091
:10499000E5490000E5490000DF49000000230793D6
:1049A00026E001220121002000F064F90223079390
:1049B0001EE001220121012000F05CF90123079390
:1049C00016E0FEF757FC03461846FFF7F7F80122FA
:1049D00002214048FFF78EF80323079308E00423E1
:1049E000079305E041F6CB713548FFF769F85FE0C2
:1049F000069B079A1A605BE09DF80330072B02D0F4
:104A0000092B04D007E02F4B00221A6709E02D4B39
:104A100001221A6705E042F255012948FFF750F8D4
:104A200046E045E09DF80330013B072B28D801A262
:104A300052F823F0554A0000814A0000814A0000E4
:104A40006B4A0000814A0000814A00005B4A000076
:104A50007B4A00000023079318E001220121042073
:104A600000F008F90123079310E001220121022040
:104A700000F000F90223079308E00323079305E001
:104A800042F2B3010E48FFF71BF811E00D4BD3F8CB
:104A90005C3123F03002079B1B010A491343C1F824
:104AA0005C3105E042F28A110548FFF709F800BFC2
:104AB0000BB05DF804FB00BF002D31010148E80197
:104AC000A83B010000400E4080400E4088400E4050
:104AD00084400E40B0400E40014B1B6818467047A2
:104AE0006414002010B584B001901120FFF73EFD42
:104AF0000346042B04D142F273413748FEF7E0FF2E
:104B000001220021022000F0B5F8019B5B78002B08
:104B100007D1019B9B78002B03D1019BDB78002BF5
:104B200004D042F2AF412C48FEF7CAFF00230393A2
:104B3000019B1B7C012B04D142F2B6412648FEF7B3
:104B4000BFFF019B1B7C022B01D101230393234B4D
:104B50005B6A23F001022149039B13434B62019BD3
:104B60001B781A4608211E48FEF7C4FF019B9B884C
:104B7000DB02019A527A1146184A0B43D362174B53
:104B80001B6B03F07F62019BDB88DB021343019AFE
:104B9000927A1A43019B1B7ADB0142EA0304019BD0
:104BA0001B7A1846FFF760F903460C4A2343136348
:104BB000019B5B7B1A03019B9B7B1B011343019AA7
:104BC000D27B1A43019B1B7B1B04044913434B6399
:104BD00000BF04B010BD00BFA83B010000400E4064
:104BE00024400E4000B585B001901120FFF7BEFCB7
:104BF0000346022B04D142F231511448FEF760FF04
:104C0000134B9A6B134B1340019A12781A43019B72
:104C10005B78DB021A43019B9B781B061A43019BBE
:104C2000DB781B0213430393094B9B6B039A9A4255
:104C300007D001220021002000F01CF8044A039B49
:104C4000936300BF05B05DF804FB00BFA83B010003
:104C500000400E4080E4FFF882B00346ADF8063015
:104C6000034ABDF80630138000BF02B0704700BF92
:104C70007014002000B589B003468DF807300B464C
:104C80008DF8063013468DF805309DF80730042B5B
:104C90003BD801A252F823F0F54C0000E34C000091
:104CA000BF4C0000AD4C0000D14C00000123059327
:104CB0000223049301230793002306932BE004238C
:104CC000059308230493032307930223069322E00A
:104CD00010230593202304930523079304230693AD
:104CE00019E04023059380230493072307930623A9
:104CF000069310E04FF4807305934FF40073049310
:104D0000092307930823069305E042F2D851494846
:104D1000FEF7D6FE8BE09DF80630002B6AD000230C
:104D20008DF80F309DF80730022B1BD1FFF7B2F83A
:104D30000346002B16D1404BDB6B03F48063002B42
:104D400004D142F2E7513B48FEF7BAFE01238DF849
:104D50000F303A4B5B6A03F00103012B02D10120B3
:104D6000FFF7A2F8354A059B136600BF0699344841
:104D7000FEF7E0FE0346002BF8D09DF80530002B2F
:104D800055D000BF07992E48FEF7D4FE0346002BEE
:104D9000F8D09DF80730022B49D19DF80F30002B39
:104DA00045D0264B5B6A03F00103012B05D101229C
:104DB0002021022000F090F903E00021022000F001
:104DC0002DF9022000F03EF802900122002102207D
:104DD000FFF750FF0299022000F074F8174A059B74
:104DE000136600BF07991648FEF7A4FE0346002B82
:104DF000F8D01CE0114A049B136600BF0F4BD3F898
:104E000090300121069A01FA02F21340002BF5D1ED
:104E10009DF80530002B0AD000BF084BD3F8903026
:104E20000121079A01FA02F21340002BF5D109B0D3
:104E30005DF804FBA83B010000300E4000400E402E
:104E400090400E4000B585B003468DF807309DF8C0
:104E50000730013B032B24D801A252F823F000BFF6
:104E6000714E0000954E00007D4E0000894E0000FE
:104E7000124B1B6AC3F3080303931AE00F4B1B6921
:104E800003F07F03039314E00C4B9B6903F07F0353
:104E900003930EE0094BD3F89C30C3F30A0303934A
:104EA00007E00023039342F264610548FEF708FE21
:104EB00000BF039B184605B05DF804FB00400E40A0
:104EC000A83B010000B585B0034600918DF807307E
:104ED0009DF80730013B032B00F28D8001A252F8B0
:104EE00023F000BFF54E0000A94F0000354F000031
:104EF0006F4F0000009BB3F5007F04D342F289613D
:104F00004248FEF7DDFD009BC3F30803009300BF9A
:104F10001A213F48FEF70EFE0346002BF8D13D4B09
:104F20001B6A23F4FF7323F001033A49009A1343E9
:104F30000B6266E0009B7F2B04D942F296613348F6
:104F4000FEF7BEFD009B03F07F03009300BF182116
:104F50002F48FEF7EFFD0346002BF8D12D4B1B69C0
:104F600023F07F022B49009B13430B6149E0009B18
:104F70007F2B04D942F2B1612448FEF7A1FD009BCA
:104F800003F07F03009300BF19212148FEF7D2FDF3
:104F90000346002BF8D11F4B9B6923F07F021D496C
:104FA000009B13438B612CE01A4BD3F8903003F035
:104FB0000403002B04D042F2C1611448FEF780FDC7
:104FC000144B5B6A23F03003124A43F01003536220
:104FD000009BDB0903F00F031846FEF745FF039023
:104FE0000C4B1A6B0C4B1340009A1A430949039B54
:104FF00013430B6305E042F2DB610448FEF760FDFA
:1050000000BF00BF05B05DF804FB00BFA83B010076
:1050100040410E4000400E4000F8FF0F00B585B043
:1050200003460A468DF8073013468DF806309DF882
:105030000730022B04D042F2F3612448FEF740FD12
:10504000FEF728FF0346002B03D14FF440030393E0
:105050001DE09DF80630302B0DD0302B0FDC002BDF
:1050600005D0202B0BD14FF4000303930FE04FF436
:10507000400303930BE04FF44003039307E0144B0A
:10508000039342F20E711148FEF71AFD00BF00BFF4
:10509000104BD3F89020039B1340039A9A42F7D108
:1050A000039B03F48003002B0AD00A4BD3F8A030F3
:1050B00003F48063002B14BF01230023DBB200E064
:1050C0000123184605B05DF804FB00BFA83B0100B2
:1050D000FF33E10700400E4000B583B003468DF872
:1050E00007300B468DF8063013468DF805309DF8D5
:1050F0000730022B1AD19DF80630002B08D0114B37
:105100004FF48062C3F8A8200E4A9DF8063053661B
:105110009DF80530002B0FD09DF806209DF8073034
:1051200011461846FFF77AFF034607E042F2447142
:105130000548FEF7C5FC00E000BF0123184603B098
:105140005DF804FB00400E40A83B010082B0EFF385
:1051500010830093009B019372B600BF019B184619
:1051600002B0704782B00190019B002B01D162B662
:1051700000BF00BF02B0704784B0EFF3118301930A
:10518000019B039360230293029B83F3118800BF6A
:10519000039B184604B0704784B00190019B0393B1
:1051A000039B83F3118800BF00BF04B07047000069
:1051B000054B5B68C3F30803002B14BF01230023D6
:1051C000DBB21846704700BF00ED00E082B0EFF39D
:1051D00010830193019B03F00103012B05D0EFF332
:1051E00011830093009B5F2B01D9012300E0002372
:1051F00003F00103DBB2184602B0704700B587B078
:10520000039002910192029B1F2B03D991210A481E
:10521000FEF756FC039B03F1424303F58013DA00CB
:10522000029B13449B000593059B019A1A6000BFE3
:1052300007B05DF804FB00BF483C010084B001905A
:105240000091019B03F1424303F58013DA00009BB8
:1052500013449B000393039B1B68184604B07047DC
:10526000054B1B6803F04003002B01D1012300E034
:1052700000231846704700BF3C300E4008B5FFF7CA
:10528000EFFF034683F00103DBB2002B08D100BF20
:1052900012210448FFF7D2FF0346002BF8D100E0AB
:1052A00000BF08BD04300E4008B5FFF7E7FF044B10
:1052B0005B681B0C03F00303DBB2184608BD00BF9C
:1052C00000300E4082B00190024A019BD36200BFC1
:1052D00002B0704700300E40014B5B6A18467047C1
:1052E00000300E40024B00225A6300BF704700BFDF
:1052F00000300E40024B4AF6E8525A6300BF704736
:1053000000300E4082B003468DF807309DF807301C
:10531000C3F10203102202FA03F3184602B07047E9
:1053200000B585B001900B468DF80330FFF798FF6C
:10533000034683F00103DBB2002B2AD1019B002B33
:105340000FD1164BD3F800311B0A03F01F030133B2
:105350000293FDF78FFF0246029B02FB03F30393C8
:1053600001E0019B03930E4B1B78002B0AD0039B9B
:105370000C4A934206D89DF803301946022000F0EB
:1053800013F807E09DF803301946002000F00CF8F0
:1053900000E000BF05B05DF804FB00BF00400E4018
:1053A000D84C0020002D310110B586B003460A46C6
:1053B0008DF8073013468DF80630FFF751FF03468E
:1053C00083F00103DBB2002B3FD1FFF76DFF0346F3
:1053D0001A469DF80730934239D01E4BD3F800315E
:1053E0001B0A03F01F0301330593FDF743FF0490ED
:1053F000049B059A02FB03F303939DF80730022BED
:105400000CD1039B144A934204D940F231611348F2
:10541000FEF756FB02210498FEF704FD104C9DF8A0
:1054200007301846FFF76EFF034623619DF80630EC
:10543000002B01D0FFF722FF9DF80730002B07D18A
:1054400000210498FEF7EEFC02E000BF00E000BF80
:1054500006B010BD00400E40002D3101C03C0100DF
:1054600000300E4084B001901D4B9B690393039B59
:1054700023F03F030393019B1B78002B01D00422F0
:1054800000E00022019B5B78002B01D0022300E0AA
:1054900000231343019A9278002A01D0082200E0E9
:1054A00000221343019AD278012A01D1012200E09F
:1054B00000221343019A12791343039A134303936F
:1054C000074A039B9361064B1B6823F44032019B00
:1054D0005B791B04024913430B6000BF04B07047A3
:1054E00000300E40012318467047000000B583B01D
:1054F0000C4BDB6E0B4A43F08073D36600210A48E5
:10550000FFF79CFE0190019B002B03D0042000F0CC
:1055100075FD02E0002000F071FD00BF03B05DF8F2
:1055200004FB00BF00300E404C300E4000B58BB085
:1055300001230993099B1B050893424BDB6C1B0A53
:1055400003F00F030793404B1B881A463E4B1B8802
:1055500028335B08134403F12801079B5A1C1346A8
:105560009B001344B1FBF3F3013B0693069B0593A9
:1055700007230493049A059B934228BF134606937E
:10558000069B1B060693069B23F0E063002B04D0CA
:1055900040F689012D48FEF793FA089B23F4E003B7
:1055A000002B04D040F68A012848FEF789FA254BE3
:1055B000DB6C23F0EE620699089B0B4321491343F1
:1055C000CB64234BB3F90030002B36DB204BB3F90F
:1055D0000030ADF80E30BDF80E20BDF80E30283387
:1055E0005B08134403F12802079B01335900079B12
:1055F00001335B080B44B2FBF3F30293029B01936C
:1056000007230093009A019B934228BF13460293FD
:10561000029B1B010293029B23F07003002B04D01A
:1056200040F6A2010948FEF74BFA064B1B6D23F02A
:1056300070020449029B13430B6500BF0BB05DF879
:1056400004FB00BF00300E40D24C0020C03C0100E3
:10565000D64C002082B001900B46ADF80230019B81
:105660009AB2044B1A80044ABDF80230138000BF7E
:1056700002B07047D24C0020D64C002000B583B059
:1056800003468DF807309DF80730002B02D0012B20
:1056900004D007E0084B094A9A6509E0064B084A1E
:1056A0009A6505E040F6CE010648FEF709FA00BF0C
:1056B00000BF03B05DF804FB00300E407740205778
:1056C000372110B7C03C010000B585B003468DF806
:1056D00007300B468DF8063013468DF80530344BF5
:1056E000D3F8803103939DF80630032B1CD801A218
:1056F00052F823F0055700000D570000175700001F
:1057000021570000039BDBB2039314E0039B1B0AA9
:10571000DBB203930FE0039B1B0CDBB203930AE0A5
:10572000039B1B0E039306E040F612112148FEF77F
:10573000C7F9002338E09DF80530002B16D1039BF4
:105740001B030393039B23F47043002B06D040F606
:105750001D111848FEF7B4F9002325E0164BDB6E47
:1057600023F470421449039B1343CB669DF8053024
:10577000012B18D1039B1B030393039B23F470435A
:10578000002B06D040F629110A48FEF799F90023AC
:105790000AE0094BD3F8EC3023F470420649039B2E
:1057A0001343C1F8EC300123184605B05DF804FB43
:1057B000B081E00FC03C010000300E4000B589B060
:1057C0000390029111461A460B468DF80730134696
:1057D0008DF8063000230793002306939DF80630CA
:1057E0001B029DF80720002A01D0012200E00022C0
:1057F00013430593059B40F2013293425CD0059B15
:1058000040F20132934200F29380059BB3F5407F52
:1058100000F08280059BB3F5407F00F28980059BF4
:1058200040F2012293423BD0059B40F20122934279
:105830007ED8059BB3F5007F62D0059BB3F5007F52
:1058400076D8059B40F2011293421DD0059BB3F51B
:10585000817F6DD2059BB3F5807F45D0059BB3F565
:10586000807F65D8059B002B32D0059B012B5FD133
:10587000374BD3F874310793079B1B0ADBB20693AF
:10588000079BDBB2079359E0314BD3F87431079390
:10589000079B1B0E0693079B1B0CDBB207934DE087
:1058A0002B4BD3F878310793079B1B0ADBB2069387
:1058B000079BDBB2079341E0254BD3F87831079380
:1058C000079B1B0E0693079B1B0CDBB2079335E06F
:1058D0001F4BD3F86C310793079B1B0ADBB206936F
:1058E000079BDBB2079329E0194BD3F86C31079380
:1058F000079B1B0E0693079B1B0CDBB207931DE057
:10590000134BD3F870310793079B1B0ADBB2069346
:10591000079BDBB2079311E00D4BD3F8703107936F
:10592000079B1B0E0693079B1B0CDBB2079305E03E
:1059300040F68E110748FEF7C3F800BF039B079A95
:105940001A60029B069A1A6000BF09B05DF804FB5A
:10595000B081E00FC03C010000B585B003468DF872
:105960000730424B5B6B012B0CBF012300238DF8EA
:105970000F30FFF7BFFC00BF3C4B9B6F03F00103F0
:10598000002BF9D1394B1B6C03F003030293029BEC
:10599000002B04D001220D213548FFF72FFC029B7C
:1059A000DBB29DF807209A4209D19DF80730002B01
:1059B00058D100220D212E48FFF720FC52E0029B17
:1059C000032B02D0029B002B22D19DF80730022B23
:1059D00003D09DF80730012B1AD14FF40020FFF7B8
:1059E00071FC00BF214B9B6F03F00103002BF9D129
:1059F0001E4B1B6C23F003031C4A43F0010313648A
:105A000000BFFFF769FC034603F40023002BF8D026
:105A100000BF164B9B6F03F00103002BF9D1134B12
:105A20001B6C23F003029DF80730104913430B64ED
:105A300000BF0E4B9B6F03F00103002BF9D19DF8C3
:105A40000730002B14BF01230023DBB21A460D21BF
:105A50000748FFF7D3FB9DF80F30002B03D0FFF76B
:105A600041FC00E000BF05B05DF804FB00300E40D3
:105A700054300E4000B585B001906C4B02229A6301
:105A80006A4B9B6B03F00F03022B06D040F64B21B1
:105A90006748FEF715F80023C3E0FFF723FD019BDD
:105AA0001B89C82B04D940F655216148FEF708F838
:105AB000019B9A88019B1B899A4204D940F6562182
:105AC0005B48FDF7FDFF019BB3F90C30C82B04DDEB
:105AD00040F657215648FDF7F3FF019B5B78012BF9
